:03000000000000fd
:0300010003f36f97
:0300020003e6e131
:0300030003da56c7
:0300040003cdd158
:0300050003c154e0
:0300060003b4e060
:0300070003a878d3
:03000800039c1d39
:03000900038fd290
:03000a00038398d5
:03000b0003777206
:03000c00036b6023
:03000d00035f6529
:03000e0003538415
:03000f000347bce8
:03001000033c119d
:0300110003308534
:03001200032518ab
:030013000319cd01
:03001400030ea632
:030015000303a33f
:0300160002f8c825
:0300170002ee15e1
:0300180002e38d73
:0300190002d930d9
:03001a0002cf0111
:03001b0002c5011a
:03001c0002bb31f3
:03001d0002b19499
:03001e0002a82a0b
:03001f00029ef549
:030020000295f74f
:03002100028d301d
:030022000284a3b2
:03002300027c500c
:030024000274392a
:03002500026c5f0b
:030026000264c3ae
:03002700025d6611
:0300280002564a33
:03002900024f7013
:03002a000248d9b0
:03002b0002428509
:03002c00023c761d
:03002d000236acec
:03002e0002312973
:03002f00022beeb3
:030030000226faab
:0300310002225058
:03003200021defbd
:030033000219d8d7
:0300340002160da4
:0300350002128d27
:03003600020f595d
:03003700020c7246
:030038000209d7e3
:0300390002078b30
:03003a0002058c30
:03003b000203dbe2
:03003c0002027845
:03003d0002016459
:03003e0002009f1e
:03003f0002002894
:03004000000000bd
:00000001FF
