:03000000000000fd
:0300010003fcdc21
:0300020003f9b847
:0300030003f6936e
:0300040003f36f94
:0300050003f04bba
:0300060003ed28df
:0300070003ea0405
:0300080003e6e12b
:0300090003e3be50
:03000a0003e09b75
:03000b0003dd789a
:03000c0003da56be
:03000d0003d734e2
:03000e0003d41206
:03000f0003d0f12a
:0300100003cdd14c
:0300110003cab16e
:0300120003c79190
:0300130003c472b1
:0300140003c154d1
:0300150003be36f1
:0300160003bb1811
:0300170003b7fc30
:0300180003b4e04e
:0300190003b1c56b
:03001a0003aeaa88
:03001b0003ab91a3
:03001c0003a878be
:03001d0003a560d8
:03001e0003a249f1
:03001f00039f3309
:03002000039c1d21
:0300210003990937
:030022000395f64d
:030023000392e362
:03002400038fd275
:03002500038cc287
:030026000389b398
:030027000386a5a8
:03002800038398b7
:0300290003808dc4
:03002a00037d83d0
:03002b00037a79dc
:03002c00037772e5
:03002d0003746bee
:03002e00037166f5
:03002f00036e62fb
:03003000036b60ff
:0300310003685f02
:0300320003656003
:0300330003626203
:03003400035f6502
:03003500035c6bfe
:03003600035971fa
:0300370003567af3
:03003800035384eb
:0300390003508fe2
:03003a00034d9cd7
:03003b00034aabca
:03003c000347bcbb
:03003d000344cfaa
:03003e000341e398
:03003f00033ef984
:03004000033c116d
:0300410003392b55
:030042000336473b
:030043000333651f
:0300440003308501
:03004500032da6e2
:03004600032acac0
:030047000327f09c
:0300480003251875
:030049000322424d
:03004a00031f6e23
:03004b00031c9cf7
:03004c000319cdc8
:03004d0003170096
:03004e0003143563
:03004f0003116c2e
:03005000030ea6f6
:03005100030be1bd
:030052000309207f
:0300530003066041
:030054000303a300
:030055000300e9bc
:0300560002fe3176
:0300570002fb7b2e
:0300580002f8c8e3
:0300590002f61795
:03005a0002f36a44
:03005b0002f0bef2
:03005c0002ee159c
:03005d0002eb6f44
:03005e0002e8cce9
:03005f0002e62b8b
:0300600002e38d2b
:0300610002e0f2c8
:0300620002de5962
:0300630002dbc3fa
:0300640002d9308e
:0300650002d6a020
:0300660002d413ae
:0300670002d1893a
:0300680002cf01c3
:0300690002cc7d49
:03006a0002c9fbcd
:03006b0002c77d4c
:03006c0002c501c9
:03006d0002c28844
:03006e0002c013ba
:03006f0002bda12e
:0300700002bb319f
:0300710002b8c50d
:0300720002b65c77
:0300730002b3f7de
:0300740002b19442
:0300750002af35a2
:0300760002acd900
:0300770002aa805a
:0300780002a82ab1
:0300790002a5d805
:03007a0002a38955
:03007b0002a13da2
:03007c00029ef5ec
:03007d00029cb032
:03007e00029a6f74
:03007f00029831b3
:030080000295f7ef
:030081000293c027
:0300820002918c5c
:03008300028f5d8c
:03008400028d30ba
:03008500028b07e4
:030086000288e20b
:030087000286c12d
:030088000284a34c
:0300890002828967
:03008a000280727f
:03008b00027e5f93
:03008c00027c50a3
:03008d00027a44b0
:03008e0002783db8
:03008f00027639bd
:03009000027439be
:0300910002723cbc
:03009200027044b5
:03009300026e4fab
:03009400026c5f9c
:03009500026a728a
:0300960002688974
:030097000266a45a
:030098000264c33c
:030099000262e61a
:03009a0002610df3
:03009b00025f37ca
:03009c00025d669c
:03009d00025b996a
:03009e000259d034
:03009f0002580bf9
:0300a00002564abb
:0300a10002548e78
:0300a2000252d532
:0300a300025121e6
:0300a400024f7098
:0300a500024dc445
:0300a600024c1ced
:0300a700024a7892
:0300a8000248d932
:0300a90002473dce
:0300aa000245a666
:0300ab00024413f9
:0300ac0002428588
:0300ad000240fb13
:0300ae00023f7599
:0300af00023df31c
:0300b000023c7699
:0300b100023afd13
:0300b20002398888
:0300b300023818f8
:0300b4000236ac65
:0300b500023545cc
:0300b6000233e230
:0300b7000232838f
:0300b800023129e9
:0300b900022fd43f
:0300ba00022e8291
:0300bb00022d36dd
:0300bc00022bee26
:0300bd00022aaa6a
:0300be0002296ba9
:0300bf00022830e4
:0300c0000226fa1b
:0300c1000225c94c
:0300c20002249c79
:0300c300022373a2
:0300c400022250c5
:0300c500022131e4
:0300c600022016ff
:0300c700021f0015
:0300c800021def27
:0300c900021ce234
:0300ca00021bda3c
:0300cb00021ad73f
:0300cc000219d83e
:0300cd000218de38
:0300ce000217e92d
:0300cf000216f91d
:0300d00002160d08
:0300d100021526ef
:0300d200021443d2
:0300d300021366af
:0300d40002128d88
:0300d5000211b95c
:0300d6000210e92c
:0300d70002101ff5
:0300d800020f59bb
:0300d900020e987c
:0300da00020ddc38
:0300db00020d24ef
:0300dc00020c72a1
:0300dd00020bc44f
:0300de00020b1bf7
:0300df00020a779b
:0300e0000209d73b
:0300e10002093dd4
:0300e2000208a76a
:0300e300020817f9
:0300e40002078b85
:0300e5000207040b
:0300e6000206818e
:0300e7000206040a
:0300e80002058c82
:0300e900020518f5
:0300ea000204a964
:0300eb00020440cc
:0300ec000203db31
:0300ed0002037b90
:0300ee00020320ea
:0300ef000202c941
:0300f00002027891
:0300f10002022cdc
:0300f2000201e424
:0300f3000201a265
:0300f400020164a2
:0300f50002012bda
:0300f6000200f80d
:0300f7000200c93b
:0300f80002009f64
:0300f90002007a88
:0300fa0002005aa7
:0300fb0002003fc1
:0300fc00020028d7
:0300fd00020017e7
:0300fe0002000bf2
:0300ff00020003f9
:03010000000000fc
:00000001FF
